:100000000C9462000C948A000C948A000C948A0070
:100010000C948A000C948A000C948A000C948A0038
:100020000C948A000C948A000C948A000C948A0028
:100030000C948A000C948A000C948A000C948A0018
:100040000C9411030C948A000C9481030C945B03B0
:100050000C948A000C948A000C948A000C948A00F8
:100060000C948A000C948A000000000023002600F3
:10007000290000000000240027002A0000000000E2
:10008000250028002B0004040404040404040202D4
:100090000202020203030303030301020408102007
:1000A0004080010204081020010204081020000012
:1000B0000008000201000003040700000000000027
:1000C0000000340611241FBECFEFD8E0DEBFCDBF45
:1000D00011E0A0E0B1E0E8E6FFE002C005900D927B
:1000E000A43AB107D9F722E0A4EAB1E001C01D9219
:1000F000A335B207E1F710E0C2E6D0E004C02197D3
:10010000FE010E94AC07C136D107C9F70E94F8036F
:100110000C94B2070C94000090E0FC01E255FF4FF4
:100120002491FC01E656FF4F3491FC01EA57FF4F42
:10013000E491EE23C9F0222339F0233001F1A8F431
:10014000213019F1223029F1F0E0EE0FFF1FE458C1
:10015000FF4FA591B4918FB7F894EC91611126C02F
:1001600030953E233C938FBF08952730A9F0283067
:10017000C9F0243049F7809180008F7D03C08091C1
:1001800080008F7780938000DFCF84B58F7784BD28
:10019000DBCF84B58F7DFBCF8091B0008F778093CC
:1001A000B000D2CF8091B0008F7DF9CF3E2BDACF57
:1001B000CF93DF9390E0FC01E656FF4F24918A57DE
:1001C0009F4FFC0184918823D1F090E0880F991F04
:1001D000FC01EE58FF4FA591B491FC01E458FF4F8C
:1001E000C591D49161110EC09FB7F8948C91E22F04
:1001F000E0958E238C932881E223E8839FBFDF91D3
:10020000CF9108958FB7F894EC91E22BEC938FBFC8
:10021000F6CF3FB7F8948091B2019091B301A091CD
:10022000B401B091B50126B5A89B05C02F3F19F0C8
:100230000196A11DB11D3FBFBA2FA92F982F882766
:10024000BC01CD01620F711D811D911D42E0660F41
:10025000771F881F991F4A95D1F70895AF92BF92D3
:10026000CF92DF92EF92FF920F931F93CF93DF9382
:100270006C017B018B01040F151FEB015E01AE18B1
:10028000BF08C017D10759F06991D601ED91FC91D3
:100290000190F081E02DC6010995892B79F7C50100
:1002A000DF91CF911F910F91FF90EF90DF90CF9052
:1002B000BF90AF900895FC01538D448D252F30E001
:1002C000842F90E0821B930B541710F0CF96089563
:1002D00001970895FC01918D828D981761F0A28D90
:1002E000AE0FBF2FB11D5D968C91928D9F5F9F7356
:1002F000928F90E008958FEF9FEF0895FC01918D0C
:10030000828D981731F0828DE80FF11D858D90E078
:1003100008958FEF9FEF0895FC01918D228D892F15
:1003200090E0805C9F4F821B91098F7399270895FD
:1003300086EB91E00E948C0121E0892B09F420E0FA
:10034000822F089580E090E0892B29F00E94980187
:1003500081110C9400000895FC01A48DA80FB92F01
:10036000B11DA35ABF4F2C91848D90E001968F73DD
:100370009927848FA689B7892C93A089B1898C91FC
:10038000837080648C93938D848D981306C002884B
:10039000F389E02D80818F7D80830895EF92FF9215
:1003A0000F931F93CF93DF93EC0181E0888F9B8D98
:1003B0008C8D98131AC0E889F989808185FF15C052
:1003C0009FB7F894EE89FF896083E889F989808175
:1003D0008370806480839FBF81E090E0DF91CF9144
:1003E0001F910F91FF90EF900895F62E0B8D10E066
:1003F0000F5F1F4F0F731127E02E8C8D8E110CC0D5
:100400000FB607FCFACFE889F989808185FFF5CF1F
:10041000CE010E94AC01F1CFEB8DEC0FFD2FF11D51
:10042000E35AFF4FF0829FB7F8940B8FEA89FB895C
:1004300080818062CFCFCF93DF93EC01888D8823BA
:10044000B9F0AA89BB89E889F9898C9185FD03C037
:10045000808186FD0DC00FB607FCF7CF8C9185FF1C
:10046000F2CF808185FFEDCFCE010E94AC01E9CFB4
:10047000DF91CF910895FC0101900020E9F73197B9
:10048000AF01481B590BBC0186EB91E00C942E0187
:100490008F929F92AF92BF920F931F93CF93DF9350
:1004A000CDB7DEB7A1970FB6F894DEBF0FBECDBFB4
:1004B00019A2423008F44AE08E010F5D1F4F842ECE
:1004C000912CB12CA12CA50194010E948A07E62F42
:1004D000B901CA01EA30F4F4E05DD801EE938D0170
:1004E000232B242B252B79F790E080E0109719F02F
:1004F000CD010E943B02A1960FB6F894DEBF0FBE5D
:10050000CDBFDF91CF911F910F91BF90AF909F9082
:100510008F900895E95CE1CFCF92DF92EF92FF9246
:10052000CF93DF936B017C016DE286EB91E00E943B
:10053000CE01EC0166277727CB016C197D098E0966
:100540009F094AE00E9448028C0F9D1FDF91CF91C6
:10055000FF90EF90DF90CF900895CF93DF930E94AC
:100560003B02EC0182E191E00E943B028C0F9D1F57
:10057000DF91CF9108950F931F93CF93DF93182F9F
:10058000EB0160E00E948C0083E090E00197F1F7BE
:1005900061E0812F0E948C0083E290E00197F1F7E7
:1005A00060E0812F0E948C00FE01E656FF4F6491AF
:1005B000FE01EA57FF4FE491F0E0EE0FFF1FE8590C
:1005C000FF4F8591949100E21EE420E030E0462F39
:1005D0000E94B3036115710581059105E9F06F5F14
:1005E0007F4F8F4F9F4F9F7061157105810591055A
:1005F00099F00E94680626E933E44BE05DE30E942F
:10060000CC0620E030E040E05FE30E94CC06DF91C2
:10061000CF911F910F91089560E070E080E89FEB0B
:10062000F6CF1F920F920FB60F9211242F933F9384
:100630008F939F93AF93BF938091AE019091AF0141
:10064000A091B001B091B1013091AD0123E0230F31
:100650002D3758F50196A11DB11D2093AD01809352
:10066000AE019093AF01A093B001B093B10180911E
:10067000B2019091B301A091B401B091B50101967E
:10068000A11DB11D8093B2019093B301A093B40159
:10069000B093B501BF91AF919F918F913F912F91F1
:1006A0000F900FBE0F901F90189526E8230F02960B
:1006B000A11DB11DD2CF1F920F920FB60F92112420
:1006C0002F933F934F935F936F937F938F939F935A
:1006D000AF93BF93EF93FF9386EB91E00E94AC0141
:1006E000FF91EF91BF91AF919F918F917F916F910A
:1006F0005F914F913F912F910F900FBE0F901F90E0
:1007000018951F920F920FB60F9211242F938F936B
:100710009F93EF93FF93E091C601F091C701808111
:10072000E091CC01F091CD0182FD1BC090818091C0
:10073000CF018F5F8F732091D001821741F0E0913C
:10074000CF01F0E0EA54FE4F958F8093CF01FF91E7
:10075000EF919F918F912F910F900FBE0F901F904F
:1007600018958081F4CFCF92DF92EF92FF920F9392
:100770001F93E82FF92F05C00150110921093109F4
:1007800061F1908196239417B9F305C001501109C6
:100790002109310911F1908196239413F7CFC12CCF
:1007A000D12CE12CF12C0AC08FEFC81AD80AE80A24
:1007B000F80A0C151D052E053F0579F0808186236A
:1007C000841791F36C2D7D2D8E2D9F2D1F910F91F0
:1007D000FF90EF90DF90CF90089560E070E080E0B0
:1007E00090E01F910F91FF90EF90DF90CF900895D0
:1007F000789484B5826084BD84B5816084BD85B5FC
:10080000826085BD85B5816085BD80916E00816007
:1008100080936E00109281008091810082608093AD
:1008200081008091810081608093810080918000AF
:100830008160809380008091B10084608093B100DA
:100840008091B00081608093B00080917A008460D4
:1008500080937A0080917A00826080937A00809100
:100860007A00816080937A0080917A00806880931A
:100870007A001092C10061E087E00E94D80060E039
:1008800086E00E94D80061E085E00E94D80060E028
:1008900084E00E94D80061E088E00E94D80061E016
:1008A00089E00E94D80061E088E00E948C0061E04D
:1008B00089E00E948C0061E08AE00E948C00E09157
:1008C000C601F091C70182E08083E091C201F091FE
:1008D000C3011082E091C401F091C5018FEC8083C7
:1008E0001092CE01E091CA01F091CB0186E08083A5
:1008F000E091C801F091C901808180618083E0911D
:10090000C801F091C901808188608083E091C801AD
:10091000F091C901808180688083E091C801F091E5
:10092000C90180818F7D808385E191E00E94AD02C5
:10093000C0E0D0E002E010E0AA24A394B12C66E06D
:1009400070E087E090E00E94BB022B013C0164E074
:1009500070E085E090E00E94BB026B017C01809119
:10096000A40120E030E040E85FE3813009F468C092
:10097000C301B2010E94C706181694F520E030E0CA
:1009800040E251E4C301B2010E946106181644F12D
:1009900060E088E00E948C0081E08093A401809157
:1009A000A9019091AA0101969093AA018093A901AF
:1009B00087E391E00E943B028AE491E00E943B02BF
:1009C0006091A9017091AA01072E000C880B990B68
:1009D00097FF32C00E948C0282E191E00E943B02AC
:1009E0008091AB019091AC018130910509F4A8C0D0
:1009F00008F442C0029709F4D3C020E030E040E898
:100A00005FE3C701B6010E94610618160CF4F1C03D
:100A10008091AB019091AC01019709F0F5C061E0C4
:100A20008AE00E948C001092AC011092AB018DE91B
:100A300091E00E94AD02E8C04AE00E944802CCCF9B
:100A4000C301B2010E94610618165CF420E030E098
:100A500040E251E4C301B2010E94C70618160CF02F
:100A6000BFCF61E088E00E948C001092A40182E573
:100A700091E00E94AD02B4CF20E030E040E85FE3B7
:100A8000C701B6010E94C70618160CF0A8C020E0E6
:100A900030E040E251E4C701B6010E946106181639
:100AA0000CF49DC08091A9019091AA011816190615
:100AB0000CF041C060E08AE00E948C002FB7F894EF
:100AC0008091AE019091AF01A091B001B091B101C0
:100AD0002FBF8093A5019093A601A093A701B09387
:100AE000A801B092AC01A092AB018091A9019091B4
:100AF000AA0101979093AA018093A9018DE591E045
:100B00000E943B028AE491E00E943B026091A901AD
:100B10007091AA01072E000C880B990B97FF07C054
:100B20000E948C0282E191E00E943B0266CF4AE083
:100B30000E944802F7CF8FE691E00E94AD025DCFA0
:100B40002FB7F8948091AE019091AF01A091B001C0
:100B5000B091B1012FBF4091A5015091A6016091C4
:100B6000A7017091A801841B950BA60BB70B8838C1
:100B70009341A105B10508F440CF61E08AE00E94ED
:100B80008C0060E089E00E948C001093AC0100931F
:100B9000AB018DE791E00E94AD0288E891E0CDCFF6
:100BA00020E030E040E85FE3C701B6010E94610643
:100BB000181654F420E030E040E251E4C701B601D9
:100BC0000E94C70618165CF461E089E00E948C0060
:100BD0001092AC011092AB0182E991E0AECF20E01F
:100BE00030E040E85FE3C701B6010E9461061816D5
:100BF0005CF420E030E040E251E4C701B6010E941D
:100C0000C70618160CF404CF0E9409012B013C0101
:100C100084EFC82EDD24D394E12CF12C0E9409012D
:100C20006419750986099709683E73408105910525
:100C3000A8F381E0C81AD108E108F10828EE420EB5
:100C400023E0521E611C711CC114D104E104F104A3
:100C500029F7209709F473CE0E949801882309F49C
:100C60006ECE0E9400006BCEE6EBF1E013821282A2
:100C700088EE93E0A0E0B0E084839583A683B783F9
:100C800084E091E09183808385EC90E09587848770
:100C900084EC90E09787868780EC90E0918B808B46
:100CA00081EC90E0938B828B82EC90E0958B848B2F
:100CB00086EC90E0978B868B118E128E138E148E9D
:100CC00008950E94A30608F481E00895E89409C0FD
:100CD00097FB3EF490958095709561957F4F8F4F6F
:100CE0009F4F9923A9F0F92F96E9BB279395F69585
:100CF000879577956795B795F111F8CFFAF4BB0F03
:100D000011F460FF1BC06F5F7F4F8F4F9F4F16C066
:100D1000882311F096E911C0772321F09EE8872FF0
:100D2000762F05C0662371F096E8862F70E060E0AC
:100D30002AF09A95660F771F881FDAF7880F969525
:100D4000879597F90895990F0008550FAA0BE0E8C9
:100D5000FEEF16161706E807F907C0F0121613067D
:100D6000E407F50798F0621B730B840B950B39F4BD
:100D70000A2661F0232B242B252B21F408950A2623
:100D800009F4A140A6958FEF811D811D08950E9451
:100D9000A30608F48FEF08950E94DF060C94500715
:100DA0000E94420738F00E94490720F0952311F075
:100DB0000C9439070C943F0711240C9484070E946B
:100DC000610770F3959FC1F3950F50E0551F629F27
:100DD000F001729FBB27F00DB11D639FAA27F00D94
:100DE000B11DAA1F649F6627B00DA11D661F829FBB
:100DF0002227B00DA11D621F739FB00DA11D621FA0
:100E0000839FA00D611D221F749F3327A00D611DBC
:100E1000231F849F600D211D822F762F6A2F11249E
:100E20009F5750409AF0F1F088234AF0EE0FFF1FD1
:100E3000BB1F661F771F881F91505040A9F79E3F28
:100E4000510580F00C9439070C9484075F3FE4F35C
:100E5000983ED4F3869577956795B795F795E7957E
:100E60009F5FC1F7FE2B880F911D9695879597F987
:100E7000089597F99F6780E870E060E008959FEF1C
:100E800080EC089500240A94161617061806090621
:100E9000089500240A9412161306140605060895F0
:100EA000092E0394000C11F4882352F0BB0F40F478
:100EB000BF2B11F460FF04C06F5F7F4F8F4F9F4FB8
:100EC000089557FD9058440F551F59F05F3F71F03A
:100ED0004795880F97FB991F61F09F3F79F08795A1
:100EE0000895121613061406551FF2CF4695F1DF2A
:100EF00008C0161617061806991FF1CF86957105BA
:100F0000610508940895E894BB2766277727CB01ED
:100F100097F90895A1E21A2EAA1BBB1BFD010DC073
:100F2000AA1FBB1FEE1FFF1FA217B307E407F50799
:100F300020F0A21BB30BE40BF50B661F771F881F75
:100F4000991F1A9469F760957095809590959B010B
:100F5000AC01BD01CF010895EE0FFF1F0590F49184
:080F6000E02D0994F894FFCF85
:100F680000000000CE012E015B011B028C016A010A
:100F78007E010D0A0053686F6520526F626F7420FE
:100F8800496E697469616C697A6174696F6E2073FE
:100F980075636365732100447573746572204F4EE1
:100FA80020546F6B656E733A2000436F756E743A08
:100FB8002000447573746572204F46460053707262
:100FC8006179696E672053746172746564200042A8
:100FD8007566666572204C6F636B6564005370724A
:100FE800617920446F6E6520427566666572204F90
:100FF8004E00427566666572204F4646005265731C
:04100800657400000B
:00000001FF
